:020000040000FA
:100000000C9462000C948A000C948A000C948A0070
:100010000C948A000C948A000C948A000C948A0038
:100020000C948A000C948A000C948A000C948A0028
:100030000C948A000C948A000C948A000C948A0018
:100040000C9486050C948A000C9454050C942E058F
:100050000C948A000C948A000C948A000C948A00F8
:100060000C948A000C948A000000000024002700F1
:100070002A0000000000250028002B0000000000DE
:1000800023002600290004040404040404040202DA
:100090000202020203030303030301020408102007
:1000A0004080010204081020010204081020000012
:1000B0000008000201000003040700000000000027
:1000C0000000150611241FBECFEFD8E0DEBFCDBF64
:1000D00012E0A0E0B1E0E2EFF3E102C005900D9282
:1000E000AE35B107D9F723E0AEE5B2E001C01D920D
:1000F000A132B207E1F710E0C2E6D0E004C02197D8
:10010000FE010E94DD09C136D107C9F70E947C06B5
:100110000C94F7090C940000AF92BF92CF92DF923B
:10012000EF92FF920F931F93CF93DF936C017B01AC
:100130008B01040F151FEB015E01AE18BF08C0173D
:10014000D10759F06991D601ED91FC910190F081B0
:10015000E02DC6010995892B79F7C501DF91CF9173
:100160001F910F91FF90EF90DF90CF90BF90AF90D5
:100170000895FC01538D448D252F30E0842F90E0AD
:10018000821B930B541710F0CF9608950197089592
:10019000FC01918D828D981761F0A28DAE0FBF2F5B
:1001A000B11D5D968C91928D9F5F9F73928F90E0B1
:1001B00008958FEF9FEF0895FC01918D828D981720
:1001C00031F0828DE80FF11D858D90E008958FEF5D
:1001D0009FEF0895FC01918D228D892F90E0805C26
:1001E0009F4F821B91098F73992708958AE692E0A9
:1001F0000E94EA0021E0892B09F420E0822F089573
:1002000080E090E0892B29F00E94F60081110C9487
:1002100000000895FC01A48DA80FB92FB11DA35AA9
:10022000BF4F2C91848D90E001968F739927848F16
:10023000A689B7892C93A089B1898C918370806439
:100240008C93938D848D981306C00288F389E02DDA
:1002500080818F7D80830895EF92FF920F931F938B
:10026000CF93DF93EC0181E0888F9B8D8C8D981369
:100270001AC0E889F989808185FF15C09FB7F89475
:10028000EE89FF896083E889F989808183708064C1
:1002900080839FBF81E090E0DF91CF911F910F910C
:1002A000FF90EF900895F62E0B8D10E00F5F1F4F1B
:1002B0000F731127E02E8C8D8E110CC00FB607FC2A
:1002C000FACFE889F989808185FFF5CFCE010E94B8
:1002D0000A01F1CFEB8DEC0FFD2FF11DE35AFF4F1B
:1002E000F0829FB7F8940B8FEA89FB898081806246
:1002F000CFCFCF93DF93EC01888D8823B9F0AA8903
:10030000BB89E889F9898C9185FD03C0808186FDD0
:100310000DC00FB607FCF7CF8C9185FFF2CF80811F
:1003200085FFEDCFCE010E940A01E9CFDF91CF9189
:100330000895833081F028F4813099F08230A9F05B
:1003400008958730A9F08830C9F08430B1F48091E5
:1003500080008F7D03C0809180008F778093800024
:10036000089584B58F7784BD089584B58F7DFBCFC4
:100370008091B0008F778093B00008958091B00095
:100380008F7DF9CFCF93DF93E5EBF0E08491E1EA45
:10039000F0E0D491EDE8F0E0C491CC23A1F081111C
:1003A0000E949901EC2FF0E0EE0FFF1FE458FF4F81
:1003B000A591B491EC91ED2381E090E009F480E007
:1003C000DF91CF91089580E090E0FACF1F93CF9313
:1003D000DF93282F30E0F901E255FF4F8491F901B6
:1003E000E656FF4FD491F901EA57FF4FC491CC2351
:1003F000A9F0162F81110E949901EC2FF0E0EE0F69
:10040000FF1FEE58FF4FA591B4918FB7F894EC9170
:10041000111108C0D095DE23DC938FBFDF91CF91FF
:100420001F910895DE2BF8CFCF93DF93EC018091DD
:100430000F0390911003029749F4C130D10509F4DC
:100440003BC06CF560E0209709F437C080910F0342
:1004500090911003049749F4C130D10509F45CC0B0
:100460000CF037C0209709F442C080910F0390919F
:100470001003059709F0E5C0CA30D10508F0E1C0C6
:10048000FE01EB5BFD4F0C94DD09A402B002C1023A
:10049000D702F202F402FB02070318031F03C23063
:1004A000D105A9F060E0C330D10581F68091130336
:1004B0000E94E60160E006C061E0809113030E94A3
:1004C000E60161E0809115030E94E601BFCF61E083
:1004D000EDCFC230D10539F1C330D10509F0C5CF18
:1004E00061E0809113030E94E60160E022C061E0B8
:1004F000809113030E94E60160E0809115030E9441
:10050000E60161E0809117030E94E60160E08091BE
:1005100019030E94E601A9CF60E0809113030E94B5
:10052000E60161E0EACF60E0809113030E94E601FA
:1005300061E0809115030E94E60160E0809117035D
:100540000E94E60161E0E3CF60E0809113030E9426
:10055000E60161E0809115030E94E60161E00BC0B5
:1005600060E0809113030E94E60161E08091150331
:100570000E94E60160E0809117030E94E60160E0BE
:1005800010C060E0809113030E94E60161E0809159
:1005900015030E94E60160E0809117030E94E601C6
:1005A00061E0809119030E94E60161E015C060E0FE
:1005B000809113030E94E60161E0809115030E947F
:1005C000E60160E0809117030E94E60161E08091FE
:1005D00019030E94E60160E080911B03DF91CF9137
:1005E0000C94E60161E0E4CF61E0809113030E9486
:1005F000E60160E0E2CF61E0809113030E94E60132
:1006000060E0809115030E94E60161E0DBCF61E0CC
:10061000809113030E94E60160E0809115030E941F
:10062000E60161E0809117030E94E60160E0CFCF10
:1006300061E0809113030E94E60160E08BCF60E0EF
:10064000F8CFDF91CF910895CF93DF9390E0FC0135
:10065000E656FF4F24918A579F4FFC0184918823CF
:10066000D1F090E0880F991FFC01E859FF4FA59148
:10067000B491FC01EE58FF4FC591D49161110EC0A9
:100680009FB7F8948C91E22FE0958E238C9328816C
:10069000E223E8839FBFDF91CF9108958FB7F8944D
:1006A000EC91E22BEC938FBFF6CF3FB7F89480919B
:1006B000630290916402A0916502B091660226B532
:1006C000A89B05C02F3F19F00196A11DB11D3FBF8A
:1006D000BA2FA92F982F8827BC01CD01620F711D59
:1006E000811D911D42E0660F771F881F991F4A9553
:1006F000D1F708954F925F926F927F928F929F925F
:10070000AF92BF92EF92FF920F931F93CF93DF931D
:10071000EC0197FF04C0CC27DD27C81BD90B1816A6
:1007200019060CF061C081E090E09093080380937B
:10073000070304E010E08AE0E82EF12C209709F48A
:100740006FC00E94550380901D0390901E03A090DF
:100750001F03B09020032B013C01481859086A0878
:100760007B088090090390900A03A0900B03B0903F
:100770000C03481459046A047B0400F360931D03BE
:1007800070931E0380931F039093200380911103A5
:100790009091120320910703309108032130310515
:1007A00059F50196909312038093110320910D0344
:1007B00030910E038217930721F4109212031092C6
:1007C00011032197809111039091120320910F033F
:1007D00030911003B7012530310509F0B8010E94AE
:1007E00088090E941402AACF892B09F4A2CF109283
:1007F0000803109207039DCF892B41F480910D03CC
:1008000090910E0390931203809311038091110332
:100810009091120301979093120380931103D1CF0B
:10082000DF91CF911F910F91FF90EF90BF90AF900C
:100830009F908F907F906F905F904F9008958F92D0
:100840009F92AF92BF92CF92DF92EF92FF924B01B5
:100850005C010E9455036B017C010E9455036C19D9
:100860007D098E099F09683E734081059105A8F3B3
:1008700021E0821A9108A108B10888EEC80E83E031
:10088000D81EE11CF11C81149104A104B10429F7C4
:10089000FF90EF90DF90CF90BF90AF909F908F90A0
:1008A0000895FC0101900020E9F73197AF01481B42
:1008B000590BBC018AE692E00C948C00CF93DF9335
:1008C0000E945104EC0182E191E00E9451048C0FDE
:1008D0009D1FDF91CF9108958F929F92AF92BF920B
:1008E000CF92DF92EF92FF920F931F93CF93DF93FC
:1008F000CDB7DEB7A1970FB6F894DEBF0FBECDBF60
:100900006B017C01F7FE41C06DE28AE692E00E9435
:100910002C018C0122273327A9012C193D094E09EE
:100920005F0919A2CE0181967C019AE0892E912C53
:10093000A12CB12CCA01B901A50194010E949C0906
:10094000605DF70162937F01211531054105510575
:1009500089F790E080E0309719F0CF010E945104B0
:10096000800F911FA1960FB6F894DEBF0FBECDBFCA
:10097000DF91CF911F910F91FF90EF90DF90CF907B
:10098000BF90AF909F908F900895AC019B0119A2EA
:100990008E010F5D1F4F8AE0C82ED12CE12CF12C67
:1009A000CA01B901A70196010E949C09605DF80186
:1009B00062938F01211531054105510589F790E0BA
:1009C00080E0309779F2CF010E945104CBCF0F9392
:1009D0001F9360E089E00E94E60183E090E00197C8
:1009E000F1F761E089E00E94E60183E290E001977F
:1009F000F1F760E089E00E94E601E4EAF0E064914A
:100A0000E0E9F0E0E491F0E0EE0FFF1FE458FF4F63
:100A10008591949100E412E42FE030E0462F0E948B
:100A2000D005611571058105910529F06F5F7F4F34
:100A30008F4F9F4F9F700E948F0826E933E44BE051
:100A40005DE30E94F30820E030E040E05FE30E94B5
:100A5000F3080E9457081F910F9108951F920F925B
:100A60000FB60F9211242F933F934F935F936F9381
:100A70007F938F939F93AF93BF93EF93FF938AE6F8
:100A800092E00E940A01FF91EF91BF91AF919F9177
:100A90008F917F916F915F914F913F912F910F9027
:100AA0000FBE0F901F9018951F920F920FB60F92C6
:100AB00011242F938F939F93EF93FF93E0917A02EA
:100AC000F0917B028081E0918002F091810282FDB1
:100AD0001BC09081809183028F5F8F73209184026D
:100AE000821741F0E0918302F0E0E659FD4F958FC7
:100AF00080938302FF91EF919F918F912F910F909F
:100B00000FBE0F901F9018958081F4CF1F920F9207
:100B10000FB60F9211242F933F938F939F93AF9310
:100B2000BF9380915F0290916002A0916102B091A9
:100B3000620230915E0223E0230F2D3758F50196B3
:100B4000A11DB11D20935E0280935F02909360020D
:100B5000A0936102B093620280916302909164025B
:100B6000A0916502B09166020196A11DB11D80930E
:100B7000630290936402A0936502B0936602BF91F2
:100B8000AF919F918F913F912F910F900FBE0F903A
:100B90001F90189526E8230F0296A11DB11DD2CFF4
:100BA000CF92DF92EF92FF920F931F93E82FF92FCE
:100BB00005C0015011092109310961F19081962385
:100BC0009417B9F305C0015011092109310911F138
:100BD000908196239413F7CFC12CD12CE12CF12CCA
:100BE0000AC08FEFC81AD80AE80AF80A0C151D05C2
:100BF0002E053F0579F080818623841791F36C2DB3
:100C00007D2D8E2D9F2D1F910F91FF90EF90DF90E6
:100C1000CF90089560E070E080E090E01F910F9128
:100C2000FF90EF90DF90CF9008950F931F93CF9395
:100C3000DF93EAE6F2E01382128288EE93E0A0E00E
:100C4000B0E084839583A683B78384E091E09183A9
:100C5000808385EC90E09587848784EC90E097878B
:100C6000868780EC90E0918B808B81EC90E0938B79
:100C7000828B82EC90E0958B848B86EC90E0978B56
:100C8000868B118E128E138E148EC7E0D3E01B86D6
:100C90001A86198218821E8A1F8A188E198E80E081
:100CA00098E09F838E8383E090E09D878C8704E0AB
:100CB00010E01F870E8785E090E0998B888B86E097
:100CC00090E09B8B8A8B61E083E00E94240361E0CB
:100CD0008E850E94240361E088890E94240361E0DC
:100CE0008A890E9424031D8A1C8A19870887DF913C
:100CF000CF911F910F910895789484B5826084BD3F
:100D000084B5816084BD85B5826085BD85B581600F
:100D100085BD80916E00816080936E00109281008D
:100D20008091810082608093810080918100816048
:100D30008093810080918000816080938000809109
:100D4000B10084608093B1008091B0008160809395
:100D5000B00080917A00846080937A0080917A005C
:100D6000826080937A0080917A00816080937A001B
:100D700080917A00806880937A001092C100E0919F
:100D80007A02F0917B0282E08083E0917602F0911A
:100D900077021082E0917802F09179028FEC8083E3
:100DA00010928202E0917E02F0917F0286E08083C1
:100DB000E0917C02F0917D02808180618083E091EE
:100DC0007C02F0917D02808188608083E0917C02CA
:100DD000F0917D02808180688083E0917C02F091B7
:100DE0007D0280818F7D808320910D0330910E03E1
:100DF000032E000C440B550B60E077E883E993E089
:100E00000E94BE09CA01B9012FE030E040E050E085
:100E10000E94BE092093090330930A0340930B03F9
:100E200050930C0361E089E00E94240360E08AE0B3
:100E30000E94240360E087E00E94240300E010E0A9
:100E4000C1E085E191E00E945E0495E0C92ED12CBD
:100E5000E12CF12C89E190E00E947A030E94E704E2
:100E60004B015C0186E391E00E945104C701B60189
:100E70000E946C0483E491E00E945104C501B40116
:100E80000E946C0482E191E00E94510485E1881681
:100E90009104A104B1040CF050C080916902811149
:100EA00008C0C0936902109268028EE491E00E942B
:100EB0005E0480916902882369F00E94E70465312D
:100EC000710581059105FCF084E891E00E945E04C3
:100ED00010926902809167028823C1F184EE91E04B
:100EE0000E945E0485E188169104A104B10464F5B2
:100EF0000E94E7044B015C0164E670E080E090E052
:100F00000E941F04EFCF0E94C201019779F48091E3
:100F1000680281110BC08DEA91E00E945E0410927C
:100F20006902C0936802C0936702D4CF64E670E0A0
:100F300080E090E00E941F04BCCF6AE070E080E097
:100F400090E00E941F04C6CF1092670285E0C80E91
:100F5000D11CE11CF11C8FE5C816D104E104F10499
:100F600009F078CF8DEF91E00E945E048BE192E072
:100F70000E945E0485E0C82ED12CE12CF12C87EE76
:100F80009FEF0E947A030E94E7044B015C0186E315
:100F900091E00E945104C701B6010E946C0483E4F1
:100FA00091E00E945104C501B4010E946C0482E1E9
:100FB00091E00E94510485E188169104A104B104D6
:100FC0000CF050C080916902811108C0C093690281
:100FD000109268028EE491E00E945E0480916902A2
:100FE000882369F00E94E704653171058105910548
:100FF000FCF084E891E00E945E0410926902809106
:1010000067028823C1F184EE91E00E945E0485E1CD
:1010100088169104A104B10464F50E94E7044B0111
:101020005C0164E670E080E090E00E941F04EFCF76
:101030000E94C201019779F48091680281110BC06E
:101040008DEA91E00E945E0410926902C0936802EA
:10105000C0936702D4CF64E670E080E090E00E9425
:101060001F04BCCF6AE070E080E090E00E941F04A3
:10107000C6CF1092670285E0C80ED11CE11CF11C9E
:101080008FE5C816D104E104F10409F078CF83E4B8
:1010900092E00E945E040115110509F4D2CE0E946F
:1010A000F600882309F4CDCE0E940000CACE0E942B
:1010B0005E086894B1110C94ED0808950E94D2085E
:1010C00088F09F5798F0B92F9927B751B0F0E1F009
:1010D000660F771F881F991F1AF0BA95C9F714C0B9
:1010E000B13091F00E94EC08B1E008950C94EC0846
:1010F000672F782F8827B85F39F0B93FCCF38695F2
:1011000077956795B395D9F73EF49095809570954E
:1011100061957F4F8F4F9F4F0895E89409C097FBCB
:101120003EF490958095709561957F4F8F4F9F4FBE
:101130009923A9F0F92F96E9BB279395F695879502
:1011400077956795B795F111F8CFFAF4BB0F11F4C5
:1011500060FF1BC06F5F7F4F8F4F9F4F16C088236C
:1011600011F096E911C0772321F09EE8872F762FA2
:1011700005C0662371F096E8862F70E060E02AF0E3
:101180009A95660F771F881FDAF7880F96958795CF
:1011900097F9089557FD9058440F551F59F05F3F38
:1011A00071F04795880F97FB991F61F09F3F79F089
:1011B00087950895121613061406551FF2CF46950B
:1011C000F1DF08C0161617061806991FF1CF86958D
:1011D0007105610508940895E894BB276627772771
:1011E000CB0197F908950E9406090C9477090E9493
:1011F000690938F00E94700920F0952311F00C94D1
:1012000060090C94660911240C94ED080E94CA0828
:1012100070F3959FC1F3950F50E0551F629FF00149
:10122000729FBB27F00DB11D639FAA27F00DB11D62
:10123000AA1F649F6627B00DA11D661F829F2227EB
:10124000B00DA11D621F739FB00DA11D621F839F72
:10125000A00D611D221F749F3327A00D611D231F48
:10126000849F600D211D822F762F6A2F11249F5796
:1012700050409AF0F1F088234AF0EE0FFF1FBB1F99
:10128000661F771F881F91505040A9F79E3F510558
:1012900080F00C9460090C94ED085F3FE4F3983EF5
:1012A000D4F3869577956795B795F795E7959F5F02
:1012B000C1F7FE2B880F911D9695879597F9089594
:1012C00097F99F6780E870E060E008959FEF80ECF9
:1012D000089500240A94161617061806090608959C
:1012E00000240A9412161306140605060895092E02
:1012F0000394000C11F4882352F0BB0F40F4BF2B71
:1013000011F460FF04C06F5F7F4F8F4F9F4F0895B0
:1013100097FB072E16F4009407D077FD09D00E94A2
:10132000E30907FC05D03EF4909581959F4F089501
:10133000709561957F4F0895A1E21A2EAA1BBB1BE1
:10134000FD010DC0AA1FBB1FEE1FFF1FA217B30791
:10135000E407F50720F0A21BB30BE40BF50B661FA7
:10136000771F881F991F1A9469F76095709580956B
:1013700090959B01AC01BD01CF010895052E97FB0F
:101380001EF400940E94D50957FD07D00E949C09C5
:1013900007FC03D04EF40C94D50950954095309538
:1013A00021953F4F4F4F5F4F0895909580957095D1
:1013B00061957F4F8F4F9F4F0895EE0FFF1F059050
:1013C000F491E02D0994AA1BBB1B51E107C0AA1F91
:1013D000BB1FA617B70710F0A61BB70B881F991FD6
:1013E0005A95A9F780959095BC01CD010895F89480
:1013F000FFCF000000002C018C00B9007901EA0049
:10140000C800DC000D0A00526F746174696E6720B9
:101410003930206465677265657320636C6F636B38
:10142000776973652E2E2E0044697374616E63654F
:10143000206174200020646567726565733A20003E
:101440004F62737461636C65206465746563746571
:10145000642120436865636B696E67206966206F4D
:1014600062737461636C652069732072656D6F7659
:1014700065642E2E2E004F62737461636C6520725A
:10148000656D6F7665642E20436F6E74696E756945
:101490006E67206D6F76656D656E742E2E2E005012
:1014A000756C73652072656365697665643A204F73
:1014B00062737461636C652069676E6F7265642E18
:1014C00020436F6E74696E75696E67206D6F766507
:1014D0006D656E742E00536B697070696E67207451
:1014E0006865206F62737461636C652E2E2E0052E6
:1014F000656163686564203930206465677265657D
:101500007320636C6F636B776973652E00526F7421
:101510006174696E67203930206465677265657330
:1015200020636F756E746572636C6F636B7769733C
:10153000652E2E2E005265616368656420737461A8
:101540007274696E6720706F736974696F6E2E00B4
:107E0000112484B714BE81FFF0D085E080938100F7
:107E100082E08093C00088E18093C10086E0809377
:107E2000C20080E18093C4008EE0C9D0259A86E02C
:107E300020E33CEF91E0309385002093840096BBD3
:107E4000B09BFECF1D9AA8958150A9F7CC24DD24C4
:107E500088248394B5E0AB2EA1E19A2EF3E0BF2EE7
:107E6000A2D0813461F49FD0082FAFD0023811F036
:107E7000013811F484E001C083E08DD089C08234E0
:107E800011F484E103C0853419F485E0A6D080C0E4
:107E9000853579F488D0E82EFF2485D0082F10E0AE
:107EA000102F00270E291F29000F111F8ED06801E7
:107EB0006FC0863521F484E090D080E0DECF843638
:107EC00009F040C070D06FD0082F6DD080E0C81688
:107ED00080E7D80618F4F601B7BEE895C0E0D1E017
:107EE00062D089930C17E1F7F0E0CF16F0E7DF06D8
:107EF00018F0F601B7BEE89568D007B600FCFDCFD4
:107F0000A601A0E0B1E02C9130E011968C91119780
:107F100090E0982F8827822B932B1296FA010C0160
:107F200087BEE89511244E5F5F4FF1E0A038BF0790
:107F300051F7F601A7BEE89507B600FCFDCF97BE46
:107F4000E89526C08437B1F42ED02DD0F82E2BD052
:107F50003CD0F601EF2C8F010F5F1F4F84911BD097
:107F6000EA94F801C1F70894C11CD11CFA94CF0C13
:107F7000D11C0EC0853739F428D08EE10CD085E9AC
:107F80000AD08FE07ACF813511F488E018D01DD067
:107F900080E101D065CF982F8091C00085FFFCCF94
:107FA0009093C60008958091C00087FFFCCF809118
:107FB000C00084FD01C0A8958091C6000895E0E648
:107FC000F0E098E1908380830895EDDF803219F02E
:107FD00088E0F5DFFFCF84E1DECF1F93182FE3DFCA
:107FE0001150E9F7F2DF1F91089580E0E8DFEE27F6
:047FF000FF270994CA
:027FFE00040479
:00000001FF
